:1000000010C02AC029C028C027C026C025C03FC0B4
:1000100023C022C021C020C01FC01EC01DC01CC0E4
:100020001BC011241FBECFE5D1E0DEBFCDBF10E065
:10003000A0E6B0E0E4E6F1E002C005900D92A03643
:10004000B107D9F711E0A0E6B0E001C01D92A236D9
:10005000B107E1F71AD084C0D3CFF89480E690E0DE
:1000600056D01ABAD69A1BBA1BBC1ABC8FE790E0BE
:1000700099BD88BD81E88FBD89E08EBD629A81E01F
:1000800087B986EC86B978940895E7DFFFCF1F9291
:100090000F920FB60F9211241F932F933F934F93FC
:1000A0005F936F937F938F939F93AF93BF93CF9300
:1000B000DF93EF93FF93C0E6D0E0CE0160E045D040
:1000C000182FCE0161E041D086951695212F30E0A2
:1000D000280F311D3BBD2ABD84B18093610165B1FC
:1000E000CE0124D0369AFF91EF91DF91CF91BF914D
:1000F000AF919F918F917F916F915F914F913F91C0
:100100002F911F910F900FBE0F901F901895FC011B
:10011000E050FF4F1082FC0120E030E011922F5F91
:100120003F4F81E020303807C9F70895FC01E050C7
:10013000FF4F2081820F911DDC016C932F3F11F442
:10014000108208952F5F20830895FC01E050FF4F37
:1001500020812150261B820F911DFC018081089572
:04016000F894FFCF41
:00000001FF
