S00F00006D6F6C6C75736B2E737265630E
S113000010C02AC029C028C027C026C025C024C0CB
S113001035C022C021C020C01FC01EC01DC01CC0CE
S11300201BC011241FBECFE5D1E0DEBFCDBF10E061
S1130030A0E6B0E0ECE3F1E002C005900D92A0363A
S1130040B107D9F710E0A0E6B0E001C01D92A236D6
S1130050B107E1F748D070C0D3CFF8941ABAD69A52
S11300601BBA1BBC1ABC83E88FBD89E08EBD609AA5
S113007081E087B986EC86B9789408951F920F922F
S11300800FB60F9211242F933F935F936F937F9337
S11300908F939F93AF93BF9384B18093610095B185
S11300A0392F20E090E0822B932B9BBD8ABD8AB52B
S11300B09BB59BBD8ABD8091600090E001966FEF77
S11300C070E013D080936000369ABF91AF919F91F6
S11300D08F917F916F915F913F912F910F900FBE00
S11300E00F901F901895B9DFFFCF97FB092E0726B5
S11300F00AD077FD04D00CD006D000201AF47095F5
S113010061957F4F0895F6F7909581959F4F0895D7
S1130110AA1BBB1B51E107C0AA1FBB1FA617B70729
S113012010F0A61BB70B881F991F5A95A9F7809545
S10F01309095BC01CD010895F894FFCF18
S9030000FC
